:10000000758165D2B4D2B3D201D2001205607530C9
:1000100005C28212059DC28312059DC28412059DF0
:1000200012059DD282D283D28412059D12059DD5E0
:1000300030DF7520FFD282D283D284120558C28667
:10004000D28775300012058F20971B12059D2097CF
:1000500015053012058F1205A6E530B40706753078
:100060000012055880E22096DF12059D02006F8580
:1000700030361205751205583096FDD2B3C20812FB
:10008000045A1203E01204711205A61205A6120505
:1000900058020094E537C44536F538E537B4010316
:1000A0000200CCB402030200FBB4030302012AB431
:1000B0000403020159B40503020188B406030201D6
:1000C000B7B407030201E612055880FBE538B41106
:1000D00003020217B41203020219B4130302023D11
:1000E000B41403020272B415030202BBB416030275
:1000F00002EDB41103020333020215E538B4210303
:10010000020398B42203020217B42303020398B433
:100110002403020398B42503020398B426030203C0
:1001200098B41B03020398020215E538B4310302A8
:100130000217B43203020398B43303020217B43433
:1001400003020398B43503020398B43603020398FC
:10015000B42503020398020215E538B441030203F3
:1001600098B44203020398B44303020398B44403CF
:10017000020217B44503020398B44603020398B47D
:100180002F03020398020215E538B45103020398C5
:10019000B45203020398B45303020398B454030205
:1001A0000398B45503020217B45603020398B439F6
:1001B00003020398020215E538B46103020398B400
:1001C0006203020398B46303020398B46403020356
:1001D00098B46503020398B46603020217B443039C
:1001E000020398020215E538B47103020398B47251
:1001F00003020398B47303020398B47403020398D0
:10020000B47503020398B47603020398B44D030255
:10021000021702021580FE80FE120575C208120444
:100220005A1203E01204711205CC1203A8C208127C
:10023000045A1203E01203D0C2080203D11205755A
:10024000C20812045A1203E01204711205CC1205FE
:1002500075C20812045A1203E01204711205CC127E
:1002600003A8C20812045A1203E01203D0C2080203
:1002700003D1120575C20812045A1203E012047168
:100280001205CC120575C20812045A1203E01204BA
:10029000711205CC1203D0C20812045A1203E012E4
:1002A00004711205CC1205751203A8C20812045A73
:1002B0001203E01203D0C2080203D1120575C2086E
:1002C00012045A1203E01204711205CC1203D0C2B8
:1002D0000812045A1203E01204711205CCC208126B
:1002E000045A1203E01203D0C2080203D1120575AA
:1002F000C20812045A1203E01204711205CC120350
:10030000D0C20812045A1203E01204711205CC1272
:1003100003D0C20812045A1203E01204711205CC71
:100320001203A8C20812045A1203E01203D0C20832
:100330000203D1120575C20812045A1203E0120416
:10034000711205CC1203D0C20812045A1203E01233
:1003500004711205CC1203D0C20812045A1203E031
:100360001204711205CC1203D0C20812045A1203EF
:10037000E01204711205CC1203D0C20812045A1202
:1003800003E01204711205CCC20812045A1203E0F1
:100390001203D0C2080203D1C2081203E012047192
:1003A00080FB1203A812045A12042612054F2001E2
:1003B000F71203D312042612054F3001F71203D3AC
:1003C00012042612054F2001F71203D3120426222D
:1003D0002280FE12054612055875350A1205B9220B
:1003E000120409E520540C640C60141205197535CB
:1003F000011205B91205467535101205B980E112D2
:100400000546120558120409221204CC120598C39D
:10041000A2B4B3920392831204D3120598C3A2B478
:10042000B392029282221204BE120598C3A2B4B300
:10043000920192831204C5120598C3A2B4B392002C
:100440009282221204A31204672212052275350536
:100450001205B9120546120558221204A3120467A8
:100460001204F63008F422C3A2019282A200928301
:10047000221204E1120598A2B4B3920492821204EB
:10048000EF120598A2B4B3920592831204E8120504
:1004900098A2B4B392069284E520C45407F53712AB
:1004A000058222D2B31204BE120598C3A2B4B3923D
:1004B000011204C5120598C3A2B4B3920022C2B7B8
:1004C000C2B6C2B522C2B7C2B6D2B522C2B7D2B680
:1004D000C2B522C2B7D2B6D2B522D2B7C2B6C2B561
:1004E00022D2B7C2B6D2B522D2B7D2B6C2B522D2C4
:1004F000B7D2B6D2B522E5205403B40004120519D0
:1005000022B4010412053422B4020412053D22B4BF
:100510000306120546D2082222C293D292D291C279
:100520009022D293C292C291D29022C290D291C212
:1005300092D29322D293D292D291C29022C293D2DB
:1005400092D291D29022D293D292D291D29022D2B0
:1005500090C291D292C29322C28512059DD2852269
:10056000C2851205D11205D11205D1D2852290087B
:100570000093F5A022C286D287900800E53693F555
:10058000A022C287D286900800E53793F5A022907A
:100590000800E53093F5A0227964D9FE2279FF7A2C
:1005A000FFDAFED9FA227531057532FF7533FFD5B2
:1005B00033FDD532F7D531F1228535317532C87525
:1005C00033C8D533FDD532F7D531F122B1A6B1A666
:0A05D00022B19DB19DB19DB19D22A5
:0A080000C0F9A4B0999282F880902C
:00000001FF
